{
  "_format": "hh-sol-artifact-1",
  "contractName": "RTea",
  "sourceName": "contracts/Migration/rTea.sol",
  "abi": [
    {
      "inputs": [],
      "stateMutability": "nonpayable",
      "type": "constructor"
    },
    {
      "anonymous": false,
      "inputs": [
        {
          "indexed": true,
          "internalType": "address",
          "name": "owner",
          "type": "address"
        },
        {
          "indexed": true,
          "internalType": "address",
          "name": "spender",
          "type": "address"
        },
        {
          "indexed": false,
          "internalType": "uint256",
          "name": "value",
          "type": "uint256"
        }
      ],
      "name": "Approval",
      "type": "event"
    },
    {
      "anonymous": false,
      "inputs": [
        {
          "indexed": true,
          "internalType": "address",
          "name": "user",
          "type": "address"
        },
        {
          "indexed": false,
          "internalType": "uint256",
          "name": "amount",
          "type": "uint256"
        }
      ],
      "name": "MigrateToJaggery",
      "type": "event"
    },
    {
      "anonymous": false,
      "inputs": [
        {
          "indexed": true,
          "internalType": "address",
          "name": "user",
          "type": "address"
        },
        {
          "indexed": false,
          "internalType": "uint256",
          "name": "amount",
          "type": "uint256"
        }
      ],
      "name": "MigrateToMint",
      "type": "event"
    },
    {
      "anonymous": false,
      "inputs": [
        {
          "indexed": true,
          "internalType": "address",
          "name": "user",
          "type": "address"
        },
        {
          "indexed": false,
          "internalType": "uint256",
          "name": "amount",
          "type": "uint256"
        }
      ],
      "name": "MigrateToSugar",
      "type": "event"
    },
    {
      "anonymous": false,
      "inputs": [
        {
          "indexed": true,
          "internalType": "address",
          "name": "user",
          "type": "address"
        },
        {
          "indexed": false,
          "internalType": "uint256",
          "name": "amount",
          "type": "uint256"
        }
      ],
      "name": "MigrateToTeasport",
      "type": "event"
    },
    {
      "anonymous": false,
      "inputs": [
        {
          "indexed": true,
          "internalType": "address",
          "name": "previousOwner",
          "type": "address"
        },
        {
          "indexed": true,
          "internalType": "address",
          "name": "newOwner",
          "type": "address"
        }
      ],
      "name": "OwnershipTransferred",
      "type": "event"
    },
    {
      "anonymous": false,
      "inputs": [
        {
          "indexed": true,
          "internalType": "address",
          "name": "from",
          "type": "address"
        },
        {
          "indexed": true,
          "internalType": "address",
          "name": "to",
          "type": "address"
        },
        {
          "indexed": false,
          "internalType": "uint256",
          "name": "value",
          "type": "uint256"
        }
      ],
      "name": "Transfer",
      "type": "event"
    },
    {
      "inputs": [],
      "name": "JAGGERY",
      "outputs": [
        {
          "internalType": "address",
          "name": "",
          "type": "address"
        }
      ],
      "stateMutability": "view",
      "type": "function"
    },
    {
      "inputs": [],
      "name": "MINT",
      "outputs": [
        {
          "internalType": "address",
          "name": "",
          "type": "address"
        }
      ],
      "stateMutability": "view",
      "type": "function"
    },
    {
      "inputs": [],
      "name": "SUGAR",
      "outputs": [
        {
          "internalType": "address",
          "name": "",
          "type": "address"
        }
      ],
      "stateMutability": "view",
      "type": "function"
    },
    {
      "inputs": [],
      "name": "TEASPORT",
      "outputs": [
        {
          "internalType": "address",
          "name": "",
          "type": "address"
        }
      ],
      "stateMutability": "view",
      "type": "function"
    },
    {
      "inputs": [
        {
          "internalType": "address",
          "name": "owner",
          "type": "address"
        },
        {
          "internalType": "address",
          "name": "spender",
          "type": "address"
        }
      ],
      "name": "allowance",
      "outputs": [
        {
          "internalType": "uint256",
          "name": "",
          "type": "uint256"
        }
      ],
      "stateMutability": "view",
      "type": "function"
    },
    {
      "inputs": [
        {
          "internalType": "address",
          "name": "spender",
          "type": "address"
        },
        {
          "internalType": "uint256",
          "name": "amount",
          "type": "uint256"
        }
      ],
      "name": "approve",
      "outputs": [
        {
          "internalType": "bool",
          "name": "",
          "type": "bool"
        }
      ],
      "stateMutability": "nonpayable",
      "type": "function"
    },
    {
      "inputs": [
        {
          "internalType": "address",
          "name": "account",
          "type": "address"
        }
      ],
      "name": "balanceOf",
      "outputs": [
        {
          "internalType": "uint256",
          "name": "",
          "type": "uint256"
        }
      ],
      "stateMutability": "view",
      "type": "function"
    },
    {
      "inputs": [],
      "name": "decimals",
      "outputs": [
        {
          "internalType": "uint8",
          "name": "",
          "type": "uint8"
        }
      ],
      "stateMutability": "view",
      "type": "function"
    },
    {
      "inputs": [
        {
          "internalType": "address",
          "name": "spender",
          "type": "address"
        },
        {
          "internalType": "uint256",
          "name": "subtractedValue",
          "type": "uint256"
        }
      ],
      "name": "decreaseAllowance",
      "outputs": [
        {
          "internalType": "bool",
          "name": "",
          "type": "bool"
        }
      ],
      "stateMutability": "nonpayable",
      "type": "function"
    },
    {
      "inputs": [
        {
          "internalType": "address",
          "name": "spender",
          "type": "address"
        },
        {
          "internalType": "uint256",
          "name": "addedValue",
          "type": "uint256"
        }
      ],
      "name": "increaseAllowance",
      "outputs": [
        {
          "internalType": "bool",
          "name": "",
          "type": "bool"
        }
      ],
      "stateMutability": "nonpayable",
      "type": "function"
    },
    {
      "inputs": [],
      "name": "isMigration",
      "outputs": [
        {
          "internalType": "bool",
          "name": "",
          "type": "bool"
        }
      ],
      "stateMutability": "view",
      "type": "function"
    },
    {
      "inputs": [
        {
          "internalType": "uint256",
          "name": "_inputAmt",
          "type": "uint256"
        }
      ],
      "name": "migrateToJaggery",
      "outputs": [],
      "stateMutability": "nonpayable",
      "type": "function"
    },
    {
      "inputs": [
        {
          "internalType": "uint256",
          "name": "_inputAmt",
          "type": "uint256"
        }
      ],
      "name": "migrateToMint",
      "outputs": [],
      "stateMutability": "nonpayable",
      "type": "function"
    },
    {
      "inputs": [
        {
          "internalType": "uint256",
          "name": "_inputAmt",
          "type": "uint256"
        }
      ],
      "name": "migrateToSugar",
      "outputs": [],
      "stateMutability": "nonpayable",
      "type": "function"
    },
    {
      "inputs": [
        {
          "internalType": "uint256",
          "name": "_inputAmt",
          "type": "uint256"
        }
      ],
      "name": "migrateToTeasport",
      "outputs": [],
      "stateMutability": "nonpayable",
      "type": "function"
    },
    {
      "inputs": [
        {
          "internalType": "address",
          "name": "to",
          "type": "address"
        },
        {
          "internalType": "uint256",
          "name": "amount",
          "type": "uint256"
        }
      ],
      "name": "mint",
      "outputs": [],
      "stateMutability": "nonpayable",
      "type": "function"
    },
    {
      "inputs": [],
      "name": "name",
      "outputs": [
        {
          "internalType": "string",
          "name": "",
          "type": "string"
        }
      ],
      "stateMutability": "view",
      "type": "function"
    },
    {
      "inputs": [],
      "name": "owner",
      "outputs": [
        {
          "internalType": "address",
          "name": "",
          "type": "address"
        }
      ],
      "stateMutability": "view",
      "type": "function"
    },
    {
      "inputs": [],
      "name": "renounceOwnership",
      "outputs": [],
      "stateMutability": "nonpayable",
      "type": "function"
    },
    {
      "inputs": [
        {
          "internalType": "bool",
          "name": "migration",
          "type": "bool"
        }
      ],
      "name": "setMigration",
      "outputs": [],
      "stateMutability": "nonpayable",
      "type": "function"
    },
    {
      "inputs": [],
      "name": "symbol",
      "outputs": [
        {
          "internalType": "string",
          "name": "",
          "type": "string"
        }
      ],
      "stateMutability": "view",
      "type": "function"
    },
    {
      "inputs": [],
      "name": "totalSupply",
      "outputs": [
        {
          "internalType": "uint256",
          "name": "",
          "type": "uint256"
        }
      ],
      "stateMutability": "view",
      "type": "function"
    },
    {
      "inputs": [
        {
          "internalType": "address",
          "name": "recipient",
          "type": "address"
        },
        {
          "internalType": "uint256",
          "name": "amount",
          "type": "uint256"
        }
      ],
      "name": "transfer",
      "outputs": [
        {
          "internalType": "bool",
          "name": "",
          "type": "bool"
        }
      ],
      "stateMutability": "nonpayable",
      "type": "function"
    },
    {
      "inputs": [
        {
          "internalType": "address",
          "name": "sender",
          "type": "address"
        },
        {
          "internalType": "address",
          "name": "recipient",
          "type": "address"
        },
        {
          "internalType": "uint256",
          "name": "amount",
          "type": "uint256"
        }
      ],
      "name": "transferFrom",
      "outputs": [
        {
          "internalType": "bool",
          "name": "",
          "type": "bool"
        }
      ],
      "stateMutability": "nonpayable",
      "type": "function"
    },
    {
      "inputs": [
        {
          "internalType": "address",
          "name": "newOwner",
          "type": "address"
        }
      ],
      "name": "transferOwnership",
      "outputs": [],
      "stateMutability": "nonpayable",
      "type": "function"
    }
  ],
  "bytecode": "0x60806040526001600560146101000a81548160ff0219169083151502179055503480156200002c57600080fd5b506040518060400160405280600581526020017f72546573740000000000000000000000000000000000000000000000000000008152506040518060400160405280600581526020017f72546573740000000000000000000000000000000000000000000000000000008152508160039080519060200190620000b1929190620001c1565b508060049080519060200190620000ca929190620001c1565b505050620000ed620000e1620000f360201b60201c565b620000fb60201b60201c565b620002d6565b600033905090565b6000600560009054906101000a900473ffffffffffffffffffffffffffffffffffffffff16905081600560006101000a81548173ffffffffffffffffffffffffffffffffffffffff021916908373ffffffffffffffffffffffffffffffffffffffff1602179055508173ffffffffffffffffffffffffffffffffffffffff168173ffffffffffffffffffffffffffffffffffffffff167f8be0079c531659141344cd1fd0a4f28419497f9722a3daafe3b4186f6b6457e060405160405180910390a35050565b828054620001cf9062000271565b90600052602060002090601f016020900481019282620001f357600085556200023f565b82601f106200020e57805160ff19168380011785556200023f565b828001600101855582156200023f579182015b828111156200023e57825182559160200191906001019062000221565b5b5090506200024e919062000252565b5090565b5b808211156200026d57600081600090555060010162000253565b5090565b600060028204905060018216806200028a57607f821691505b60208210811415620002a157620002a0620002a7565b5b50919050565b7f4e487b7100000000000000000000000000000000000000000000000000000000600052602260045260246000fd5b61291780620002e66000396000f3fe608060405234801561001057600080fd5b50600436106101735760003560e01c806370a08231116100de578063a1503d1d11610097578063c216e08211610071578063c216e0821461043a578063dd62ed3e14610458578063f2fde38b14610488578063fb797bde146104a457610173565b8063a1503d1d146103be578063a457c2d7146103da578063a9059cbb1461040a57610173565b806370a0823114610310578063715018a6146103405780637f1e250c1461034a5780638da5cb5b1461036657806395d89b41146103845780639e4a7313146103a257610173565b80633950935111610130578063395093511461024e5780633e36f4c71461027e57806340c10f191461029c57806340e34f60146102b85780635218415a146102d657806363f689b9146102f257610173565b806305b8acff1461017857806306fdde0314610194578063095ea7b3146101b257806318160ddd146101e257806323b872dd14610200578063313ce56714610230575b600080fd5b610192600480360381019061018d9190611bf7565b6104c2565b005b61019c6105c1565b6040516101a99190611fa1565b60405180910390f35b6101cc60048036038101906101c79190611b5d565b610653565b6040516101d99190611f86565b60405180910390f35b6101ea610671565b6040516101f791906121e3565b60405180910390f35b61021a60048036038101906102159190611b0a565b61067b565b6040516102279190611f86565b60405180910390f35b610238610773565b60405161024591906121fe565b60405180910390f35b61026860048036038101906102639190611b5d565b61077c565b6040516102759190611f86565b60405180910390f35b610286610828565b6040516102939190611f34565b60405180910390f35b6102b660048036038101906102b19190611b5d565b610840565b005b6102c06108ca565b6040516102cd9190611f34565b60405180910390f35b6102f060048036038101906102eb9190611bf7565b6108e2565b005b6102fa6109e1565b6040516103079190611f34565b60405180910390f35b61032a60048036038101906103259190611a9d565b6109f9565b60405161033791906121e3565b60405180910390f35b610348610a41565b005b610364600480360381019061035f9190611b9d565b610ac9565b005b61036e610b62565b60405161037b9190611f34565b60405180910390f35b61038c610b8c565b6040516103999190611fa1565b60405180910390f35b6103bc60048036038101906103b79190611bf7565b610c1e565b005b6103d860048036038101906103d39190611bf7565b610d1d565b005b6103f460048036038101906103ef9190611b5d565b610e1c565b6040516104019190611f86565b60405180910390f35b610424600480360381019061041f9190611b5d565b610f07565b6040516104319190611f86565b60405180910390f35b610442610f25565b60405161044f9190611f34565b60405180910390f35b610472600480360381019061046d9190611aca565b610f3d565b60405161047f91906121e3565b60405180910390f35b6104a2600480360381019061049d9190611a9d565b610fc4565b005b6104ac6110bc565b6040516104b99190611f86565b60405180910390f35b600560149054906101000a900460ff16610511576040517f08c379a0000000000000000000000000000000000000000000000000000000008152600401610508906120c3565b60405180910390fd5b6105663373b63f011ebae12aac35eb11a7965b98e1878c86618373ee98193409721eb3ffcf0b14e08fc32afb4928ee73ffffffffffffffffffffffffffffffffffffffff166110cf909392919063ffffffff16565b6105703382611158565b3373ffffffffffffffffffffffffffffffffffffffff167f3378cc440944a1e720e5628b882e4d06a23dbd298e73a2a1ca86b4c706a2eb72826040516105b691906121e3565b60405180910390a250565b6060600380546105d090612329565b80601f01602080910402602001604051908101604052809291908181526020018280546105fc90612329565b80156106495780601f1061061e57610100808354040283529160200191610649565b820191906000526020600020905b81548152906001019060200180831161062c57829003601f168201915b5050505050905090565b60006106676106606112b8565b84846112c0565b6001905092915050565b6000600254905090565b600061068884848461148b565b6000600160008673ffffffffffffffffffffffffffffffffffffffff1673ffffffffffffffffffffffffffffffffffffffff16815260200190815260200160002060006106d36112b8565b73ffffffffffffffffffffffffffffffffffffffff1673ffffffffffffffffffffffffffffffffffffffff16815260200190815260200160002054905082811015610753576040517f08c379a000000000000000000000000000000000000000000000000000000000815260040161074a90612083565b60405180910390fd5b6107678561075f6112b8565b8584036112c0565b60019150509392505050565b60006012905090565b600061081e6107896112b8565b8484600160006107976112b8565b73ffffffffffffffffffffffffffffffffffffffff1673ffffffffffffffffffffffffffffffffffffffff16815260200190815260200160002060008873ffffffffffffffffffffffffffffffffffffffff1673ffffffffffffffffffffffffffffffffffffffff16815260200190815260200160002054610819919061224b565b6112c0565b6001905092915050565b732deb28ec61e7b6b4bba5f8398398330227cd293f81565b6108486112b8565b73ffffffffffffffffffffffffffffffffffffffff16610866610b62565b73ffffffffffffffffffffffffffffffffffffffff16146108bc576040517f08c379a00000000000000000000000000000000000000000000000000000000081526004016108b3906120a3565b60405180910390fd5b6108c68282611158565b5050565b7341aa9f842af935cc71252c0de4bff13f821546b881565b600560149054906101000a900460ff16610931576040517f08c379a000000000000000000000000000000000000000000000000000000000815260040161092890612163565b60405180910390fd5b6109863373b63f011ebae12aac35eb11a7965b98e1878c8661837341aa9f842af935cc71252c0de4bff13f821546b873ffffffffffffffffffffffffffffffffffffffff166110cf909392919063ffffffff16565b6109903382611158565b3373ffffffffffffffffffffffffffffffffffffffff167fe2c1f441e84ae2c519678e0d4232e04a5fe6b9584fa8527685a6d71e42b43afe826040516109d691906121e3565b60405180910390a250565b73ee98193409721eb3ffcf0b14e08fc32afb4928ee81565b60008060008373ffffffffffffffffffffffffffffffffffffffff1673ffffffffffffffffffffffffffffffffffffffff168152602001908152602001600020549050919050565b610a496112b8565b73ffffffffffffffffffffffffffffffffffffffff16610a67610b62565b73ffffffffffffffffffffffffffffffffffffffff1614610abd576040517f08c379a0000000000000000000000000000000000000000000000000000000008152600401610ab4906120a3565b60405180910390fd5b610ac7600061170c565b565b610ad16112b8565b73ffffffffffffffffffffffffffffffffffffffff16610aef610b62565b73ffffffffffffffffffffffffffffffffffffffff1614610b45576040517f08c379a0000000000000000000000000000000000000000000000000000000008152600401610b3c906120a3565b60405180910390fd5b80600560146101000a81548160ff02191690831515021790555050565b6000600560009054906101000a900473ffffffffffffffffffffffffffffffffffffffff16905090565b606060048054610b9b90612329565b80601f0160208091040260200160405190810160405280929190818152602001828054610bc790612329565b8015610c145780601f10610be957610100808354040283529160200191610c14565b820191906000526020600020905b815481529060010190602001808311610bf757829003601f168201915b5050505050905090565b600560149054906101000a900460ff16610c6d576040517f08c379a0000000000000000000000000000000000000000000000000000000008152600401610c6490612023565b60405180910390fd5b610cc23373b63f011ebae12aac35eb11a7965b98e1878c866183732deb28ec61e7b6b4bba5f8398398330227cd293f73ffffffffffffffffffffffffffffffffffffffff166110cf909392919063ffffffff16565b610ccc3382611158565b3373ffffffffffffffffffffffffffffffffffffffff167f5f5b67226014908542c379e140969643f6e45ec7d9714f01964e95e69f4f67ed82604051610d1291906121e3565b60405180910390a250565b600560149054906101000a900460ff16610d6c576040517f08c379a0000000000000000000000000000000000000000000000000000000008152600401610d6390612183565b60405180910390fd5b610dc13373b63f011ebae12aac35eb11a7965b98e1878c86618373fc5e7bed6aba672c6d435715ba931fb75eebfd2a73ffffffffffffffffffffffffffffffffffffffff166110cf909392919063ffffffff16565b610dcb3382611158565b3373ffffffffffffffffffffffffffffffffffffffff167fa1092e611eb4ee6c2424eb3c8a9e6411e16600dd0f56f26f9d8997ef4d048ea482604051610e1191906121e3565b60405180910390a250565b60008060016000610e2b6112b8565b73ffffffffffffffffffffffffffffffffffffffff1673ffffffffffffffffffffffffffffffffffffffff16815260200190815260200160002060008573ffffffffffffffffffffffffffffffffffffffff1673ffffffffffffffffffffffffffffffffffffffff16815260200190815260200160002054905082811015610ee8576040517f08c379a0000000000000000000000000000000000000000000000000000000008152600401610edf906121a3565b60405180910390fd5b610efc610ef36112b8565b858584036112c0565b600191505092915050565b6000610f1b610f146112b8565b848461148b565b6001905092915050565b73fc5e7bed6aba672c6d435715ba931fb75eebfd2a81565b6000600160008473ffffffffffffffffffffffffffffffffffffffff1673ffffffffffffffffffffffffffffffffffffffff16815260200190815260200160002060008373ffffffffffffffffffffffffffffffffffffffff1673ffffffffffffffffffffffffffffffffffffffff16815260200190815260200160002054905092915050565b610fcc6112b8565b73ffffffffffffffffffffffffffffffffffffffff16610fea610b62565b73ffffffffffffffffffffffffffffffffffffffff1614611040576040517f08c379a0000000000000000000000000000000000000000000000000000000008152600401611037906120a3565b60405180910390fd5b600073ffffffffffffffffffffffffffffffffffffffff168173ffffffffffffffffffffffffffffffffffffffff1614156110b0576040517f08c379a00000000000000000000000000000000000000000000000000000000081526004016110a790611fe3565b60405180910390fd5b6110b98161170c565b50565b600560149054906101000a900460ff1681565b611152846323b872dd60e01b8585856040516024016110f093929190611f4f565b604051602081830303815290604052907bffffffffffffffffffffffffffffffffffffffffffffffffffffffff19166020820180517bffffffffffffffffffffffffffffffffffffffffffffffffffffffff83818316178352505050506117d2565b50505050565b600073ffffffffffffffffffffffffffffffffffffffff168273ffffffffffffffffffffffffffffffffffffffff1614156111c8576040517f08c379a00000000000000000000000000000000000000000000000000000000081526004016111bf906121c3565b60405180910390fd5b6111d460008383611899565b80600260008282546111e6919061224b565b92505081905550806000808473ffffffffffffffffffffffffffffffffffffffff1673ffffffffffffffffffffffffffffffffffffffff168152602001908152602001600020600082825461123b919061224b565b925050819055508173ffffffffffffffffffffffffffffffffffffffff16600073ffffffffffffffffffffffffffffffffffffffff167fddf252ad1be2c89b69c2b068fc378daa952ba7f163c4a11628f55a4df523b3ef836040516112a091906121e3565b60405180910390a36112b46000838361189e565b5050565b600033905090565b600073ffffffffffffffffffffffffffffffffffffffff168373ffffffffffffffffffffffffffffffffffffffff161415611330576040517f08c379a000000000000000000000000000000000000000000000000000000000815260040161132790612103565b60405180910390fd5b600073ffffffffffffffffffffffffffffffffffffffff168273ffffffffffffffffffffffffffffffffffffffff1614156113a0576040517f08c379a000000000000000000000000000000000000000000000000000000000815260040161139790612003565b60405180910390fd5b80600160008573ffffffffffffffffffffffffffffffffffffffff1673ffffffffffffffffffffffffffffffffffffffff16815260200190815260200160002060008473ffffffffffffffffffffffffffffffffffffffff1673ffffffffffffffffffffffffffffffffffffffff168152602001908152602001600020819055508173ffffffffffffffffffffffffffffffffffffffff168373ffffffffffffffffffffffffffffffffffffffff167f8c5be1e5ebec7d5bd14f71427d1e84f3dd0314c0f7b2291e5b200ac8c7c3b9258360405161147e91906121e3565b60405180910390a3505050565b600073ffffffffffffffffffffffffffffffffffffffff168373ffffffffffffffffffffffffffffffffffffffff1614156114fb576040517f08c379a00000000000000000000000000000000000000000000000000000000081526004016114f2906120e3565b60405180910390fd5b600073ffffffffffffffffffffffffffffffffffffffff168273ffffffffffffffffffffffffffffffffffffffff16141561156b576040517f08c379a000000000000000000000000000000000000000000000000000000000815260040161156290611fc3565b60405180910390fd5b611576838383611899565b60008060008573ffffffffffffffffffffffffffffffffffffffff1673ffffffffffffffffffffffffffffffffffffffff168152602001908152602001600020549050818110156115fc576040517f08c379a00000000000000000000000000000000000000000000000000000000081526004016115f390612043565b60405180910390fd5b8181036000808673ffffffffffffffffffffffffffffffffffffffff1673ffffffffffffffffffffffffffffffffffffffff16815260200190815260200160002081905550816000808573ffffffffffffffffffffffffffffffffffffffff1673ffffffffffffffffffffffffffffffffffffffff168152602001908152602001600020600082825461168f919061224b565b925050819055508273ffffffffffffffffffffffffffffffffffffffff168473ffffffffffffffffffffffffffffffffffffffff167fddf252ad1be2c89b69c2b068fc378daa952ba7f163c4a11628f55a4df523b3ef846040516116f391906121e3565b60405180910390a361170684848461189e565b50505050565b6000600560009054906101000a900473ffffffffffffffffffffffffffffffffffffffff16905081600560006101000a81548173ffffffffffffffffffffffffffffffffffffffff021916908373ffffffffffffffffffffffffffffffffffffffff1602179055508173ffffffffffffffffffffffffffffffffffffffff168173ffffffffffffffffffffffffffffffffffffffff167f8be0079c531659141344cd1fd0a4f28419497f9722a3daafe3b4186f6b6457e060405160405180910390a35050565b6000611834826040518060400160405280602081526020017f5361666545524332303a206c6f772d6c6576656c2063616c6c206661696c65648152508573ffffffffffffffffffffffffffffffffffffffff166118a39092919063ffffffff16565b905060008151111561189457808060200190518101906118549190611bca565b611893576040517f08c379a000000000000000000000000000000000000000000000000000000000815260040161188a90612143565b60405180910390fd5b5b505050565b505050565b505050565b60606118b284846000856118bb565b90509392505050565b606082471015611900576040517f08c379a00000000000000000000000000000000000000000000000000000000081526004016118f790612063565b60405180910390fd5b611909856119cf565b611948576040517f08c379a000000000000000000000000000000000000000000000000000000000815260040161193f90612123565b60405180910390fd5b6000808673ffffffffffffffffffffffffffffffffffffffff1685876040516119719190611f1d565b60006040518083038185875af1925050503d80600081146119ae576040519150601f19603f3d011682016040523d82523d6000602084013e6119b3565b606091505b50915091506119c38282866119e2565b92505050949350505050565b600080823b905060008111915050919050565b606083156119f257829050611a42565b600083511115611a055782518084602001fd5b816040517f08c379a0000000000000000000000000000000000000000000000000000000008152600401611a399190611fa1565b60405180910390fd5b9392505050565b600081359050611a588161289c565b92915050565b600081359050611a6d816128b3565b92915050565b600081519050611a82816128b3565b92915050565b600081359050611a97816128ca565b92915050565b600060208284031215611ab357611ab26123b9565b5b6000611ac184828501611a49565b91505092915050565b60008060408385031215611ae157611ae06123b9565b5b6000611aef85828601611a49565b9250506020611b0085828601611a49565b9150509250929050565b600080600060608486031215611b2357611b226123b9565b5b6000611b3186828701611a49565b9350506020611b4286828701611a49565b9250506040611b5386828701611a88565b9150509250925092565b60008060408385031215611b7457611b736123b9565b5b6000611b8285828601611a49565b9250506020611b9385828601611a88565b9150509250929050565b600060208284031215611bb357611bb26123b9565b5b6000611bc184828501611a5e565b91505092915050565b600060208284031215611be057611bdf6123b9565b5b6000611bee84828501611a73565b91505092915050565b600060208284031215611c0d57611c0c6123b9565b5b6000611c1b84828501611a88565b91505092915050565b611c2d816122a1565b82525050565b611c3c816122b3565b82525050565b6000611c4d82612219565b611c57818561222f565b9350611c678185602086016122f6565b80840191505092915050565b6000611c7e82612224565b611c88818561223a565b9350611c988185602086016122f6565b611ca1816123be565b840191505092915050565b6000611cb960238361223a565b9150611cc4826123cf565b604082019050919050565b6000611cdc60268361223a565b9150611ce78261241e565b604082019050919050565b6000611cff60228361223a565b9150611d0a8261246d565b604082019050919050565b6000611d2260228361223a565b9150611d2d826124bc565b604082019050919050565b6000611d4560268361223a565b9150611d508261250b565b604082019050919050565b6000611d6860268361223a565b9150611d738261255a565b604082019050919050565b6000611d8b60288361223a565b9150611d96826125a9565b604082019050919050565b6000611dae60208361223a565b9150611db9826125f8565b602082019050919050565b6000611dd160258361223a565b9150611ddc82612621565b604082019050919050565b6000611df460258361223a565b9150611dff82612670565b604082019050919050565b6000611e1760248361223a565b9150611e22826126bf565b604082019050919050565b6000611e3a601d8361223a565b9150611e458261270e565b602082019050919050565b6000611e5d602a8361223a565b9150611e6882612737565b604082019050919050565b6000611e8060228361223a565b9150611e8b82612786565b604082019050919050565b6000611ea360268361223a565b9150611eae826127d5565b604082019050919050565b6000611ec660258361223a565b9150611ed182612824565b604082019050919050565b6000611ee9601f8361223a565b9150611ef482612873565b602082019050919050565b611f08816122df565b82525050565b611f17816122e9565b82525050565b6000611f298284611c42565b915081905092915050565b6000602082019050611f496000830184611c24565b92915050565b6000606082019050611f646000830186611c24565b611f716020830185611c24565b611f7e6040830184611eff565b949350505050565b6000602082019050611f9b6000830184611c33565b92915050565b60006020820190508181036000830152611fbb8184611c73565b905092915050565b60006020820190508181036000830152611fdc81611cac565b9050919050565b60006020820190508181036000830152611ffc81611ccf565b9050919050565b6000602082019050818103600083015261201c81611cf2565b9050919050565b6000602082019050818103600083015261203c81611d15565b9050919050565b6000602082019050818103600083015261205c81611d38565b9050919050565b6000602082019050818103600083015261207c81611d5b565b9050919050565b6000602082019050818103600083015261209c81611d7e565b9050919050565b600060208201905081810360008301526120bc81611da1565b9050919050565b600060208201905081810360008301526120dc81611dc4565b9050919050565b600060208201905081810360008301526120fc81611de7565b9050919050565b6000602082019050818103600083015261211c81611e0a565b9050919050565b6000602082019050818103600083015261213c81611e2d565b9050919050565b6000602082019050818103600083015261215c81611e50565b9050919050565b6000602082019050818103600083015261217c81611e73565b9050919050565b6000602082019050818103600083015261219c81611e96565b9050919050565b600060208201905081810360008301526121bc81611eb9565b9050919050565b600060208201905081810360008301526121dc81611edc565b9050919050565b60006020820190506121f86000830184611eff565b92915050565b60006020820190506122136000830184611f0e565b92915050565b600081519050919050565b600081519050919050565b600081905092915050565b600082825260208201905092915050565b6000612256826122df565b9150612261836122df565b9250827fffffffffffffffffffffffffffffffffffffffffffffffffffffffffffffffff038211156122965761229561235b565b5b828201905092915050565b60006122ac826122bf565b9050919050565b60008115159050919050565b600073ffffffffffffffffffffffffffffffffffffffff82169050919050565b6000819050919050565b600060ff82169050919050565b60005b838110156123145780820151818401526020810190506122f9565b83811115612323576000848401525b50505050565b6000600282049050600182168061234157607f821691505b602082108114156123555761235461238a565b5b50919050565b7f4e487b7100000000000000000000000000000000000000000000000000000000600052601160045260246000fd5b7f4e487b7100000000000000000000000000000000000000000000000000000000600052602260045260246000fd5b600080fd5b6000601f19601f8301169050919050565b7f45524332303a207472616e7366657220746f20746865207a65726f206164647260008201527f6573730000000000000000000000000000000000000000000000000000000000602082015250565b7f4f776e61626c653a206e6577206f776e657220697320746865207a65726f206160008201527f6464726573730000000000000000000000000000000000000000000000000000602082015250565b7f45524332303a20617070726f766520746f20746865207a65726f20616464726560008201527f7373000000000000000000000000000000000000000000000000000000000000602082015250565b7f6d696772617465546f4d696e74203a206d6967726174696f6e20636c6f73656460008201527f2021000000000000000000000000000000000000000000000000000000000000602082015250565b7f45524332303a207472616e7366657220616d6f756e742065786365656473206260008201527f616c616e63650000000000000000000000000000000000000000000000000000602082015250565b7f416464726573733a20696e73756666696369656e742062616c616e636520666f60008201527f722063616c6c0000000000000000000000000000000000000000000000000000602082015250565b7f45524332303a207472616e7366657220616d6f756e742065786365656473206160008201527f6c6c6f77616e6365000000000000000000000000000000000000000000000000602082015250565b7f4f776e61626c653a2063616c6c6572206973206e6f7420746865206f776e6572600082015250565b7f6d696772617465546f4a616767657279203a206d6967726174696f6e20636c6f60008201527f7365642021000000000000000000000000000000000000000000000000000000602082015250565b7f45524332303a207472616e736665722066726f6d20746865207a65726f20616460008201527f6472657373000000000000000000000000000000000000000000000000000000602082015250565b7f45524332303a20617070726f76652066726f6d20746865207a65726f2061646460008201527f7265737300000000000000000000000000000000000000000000000000000000602082015250565b7f416464726573733a2063616c6c20746f206e6f6e2d636f6e7472616374000000600082015250565b7f5361666545524332303a204552433230206f7065726174696f6e20646964206e60008201527f6f74207375636365656400000000000000000000000000000000000000000000602082015250565b7f6d696772617465546f53756761723a206d6967726174696f6e20636c6f73656460008201527f2021000000000000000000000000000000000000000000000000000000000000602082015250565b7f6d696772617465546f54656173706f7274203a206d6967726174696f6e20636c60008201527f6f73656420210000000000000000000000000000000000000000000000000000602082015250565b7f45524332303a2064656372656173656420616c6c6f77616e63652062656c6f7760008201527f207a65726f000000000000000000000000000000000000000000000000000000602082015250565b7f45524332303a206d696e7420746f20746865207a65726f206164647265737300600082015250565b6128a5816122a1565b81146128b057600080fd5b50565b6128bc816122b3565b81146128c757600080fd5b50565b6128d3816122df565b81146128de57600080fd5b5056fea2646970667358221220766bac46b53422890162b8b58dd3203ee4e4bea7bdddff243b5ec2c1e7d8573264736f6c63430008070033",
  "linkReferences": {},
  "deployedLinkReferences": {}
}